:100000000C9421040C9452040C9452040C94520449
:100010000C9452040C9452040C9452040C94520408
:100020000C9452040C9452040C9452040C945204F8
:100030000C9452040C9452040C9452040C945204E8
:100040000C9452040C9452040C9452040C945204D8
:100050000C9452040C9452040C9452040C943F12CD
:100060000C9452040C94B3120C9489120C94520404
:100070000C9452040C9452040C9452040C945204A8
:100080000C9452040C9452040C9452040C94520498
:100090000C9452040C9452040C9452040C94520488
:1000A0000C9452040C9452040C9452040C94520478
:1000B0000C9452040C9452040C9452040C94520468
:1000C0000C9452040C9452040C9452040C94520458
:1000D0000C9452040C9452040C9452040C94520448
:1000E0000C9452040C94E5070C94B3040C94960EF3
:1000F0000C94D9050C9480040C942E130C94840455
:100100000C94730D0C94C20D0C949B040C94B704C6
:100110000C94C2050C9448060C94D3080C94FD056D
:100120000C94C1090C945C060C9497040C9424095B
:100130000C94AD040C9491040C941B060C94F70AD7
:100140000C94E6070C9411060C9434060C949F044E
:100150000C948B0A0C9436080C947C080C940706BB
:100160000C94ED050C9452060C943E060C94F50587
:100170000C94640B0C9478040C94E3050C94130811
:100180000C94441A0C94A9040C9472040C94B204B8
:100190000C94070A0C9487040C94CA050C947C04F4
:1001A0000C94BD070C94BF0B0C94CF050C942A063D
:1001B0000C9422080C948D040C9444080C94A5040F
:1001C00000000000003E5B4F5B3E3E6B4F6B3E1CF1
:1001D0003E7C3E1C183C7E3C181C577D571C1C5E08
:1001E0007F5E1C00183C1800FFE7C3E7FF001824DF
:1001F0001800FFE7DBE7FF30483A060E2629792989
:1002000026407F050507407F05253F5A3CE73C5ABD
:100210007F3E1C1C08081C1C3E7F14227F22145F9A
:100220005F005F5F06097F017F006689956A6060F5
:1002300060606094A2FFA29408047E040810207EEF
:10024000201008082A1C08081C2A08081E10101074
:10025000100C1E0C1E0C30383E3830060E3E0E06BA
:10026000000000000000005F00000007000700140D
:100270007F147F14242A7F2A1223130864623649CC
:100280005620500008070300001C224100004122B4
:100290001C002A1C7F1C2A08083E080800807030B9
:1002A0000008080808080000606000201008040228
:1002B0003E5149453E00427F40007249494946212E
:1002C00041494D331814127F1027454545393C4AA2
:1002D00049493141211109073649494936464949B9
:1002E000291E000014000000403400000008142201
:1002F000411414141414004122140802015909066F
:100300003E415D594E7C1211127C7F494949363E6F
:10031000414141227F4141413E7F494949417F0955
:100320000909013E414151737F0808087F00417F60
:1003300041002040413F017F081422417F4040405E
:10034000407F021C027F7F0408107F3E4141413EF6
:100350007F090909063E4151215E7F091929462678
:100360004949493203017F01033F4040403F1F207C
:1003700040201F3F4038403F631408146303047853
:1003800004036159494D43007F4141410204081073
:1003900020004141417F04020102044040404040AE
:1003A000000307080020545478407F28444438381C
:1003B00044444428384444287F385454541800088E
:1003C0007E090218A4A49C787F0804047800447D68
:1003D00040002040403D007F1028440000417F4005
:1003E000007C047804787C08040478384444443859
:1003F000FC1824241818242418FC7C080404084839
:100400005454542404043F44243C4040207C1C2089
:1004100040201C3C4030403C44281028444C9090E4
:10042000907C4464544C440008364100000077003E
:1004300000004136080002010204023C2623263C4B
:100440001EA1A161123A4040207A385454555921D6
:1004500055557941215454784121555478402054C0
:100460005579400C1E52721239555555593954540C
:10047000545939555454580000457C410002457D7B
:10048000420001457C40F0292429F0F0282528F07D
:100490007C545545002054547C547C0A097F4932D1
:1004A000494949323248484832324A4848303A414C
:1004B00041217A3A42402078009DA0A07D394444F1
:1004C00044393D4040403D3C24FF2424487E49437C
:1004D000662B2FFC2F2BFF0929F620C0887E0903ED
:1004E00020545479410000447D413048484A323814
:1004F0004040227A007A0A0A727D0D19317D262940
:10050000292F28262929292630484D402038080837
:10051000080808080808382F10C8ACBA2F1028346B
:10052000FA00007B000008142A142222142A14085E
:10053000AA005500AAAA55AA55AA000000FF00105B
:100540001010FF00141414FF001010FF00FF101013
:10055000F010F0141414FC001414F700FF0000FF56
:1005600000FF1414F404FC141417101F10101F10B3
:100570001F1414141F00101010F0000000001F10B2
:100580001010101F10101010F010000000FF1010BD
:1005900010101010101010FF10000000FF140000C9
:1005A000FF00FF00001F10170000FC04F4141417D4
:1005B00010171414F404F40000FF00F714141414BA
:1005C000141414F700F7141414171410101F101F2C
:1005D000141414F4141010F010F000001F101F0079
:1005E00000001F14000000FC140000F010F01010B8
:1005F000FF10FF141414FF141010101F000000004F
:10060000F010FFFFFFFFFFF0F0F0F0F0FFFFFF0042
:1006100000000000FFFF0F0F0F0F0F384444384455
:100620007C2A2A3E147E02020606027E027E0263B5
:10063000554941633844443C04407E201E20060254
:100640007E020299A5E7A5991C2A492A1C4C720131
:10065000724C304A4D4D303048784830BC625A4672
:100660003D3E494949007E0101017E2A2A2A2A2A63
:1006700044445F444440514A444040444A5140004D
:1006800000FF0103E080FF000008086B6B083612D2
:10069000362436060F090F06000018180000001057
:1006A00010003040FF0101001F01011E00191D173D
:1006B00012003C3C3C3C0000000000130180321161
:1006C0008064260104B1020B14C0020800C10105B8
:1006D000C5024130C701C1EC011B3A8155642A04AF
:1006E0000000007F2B040000009F3601C8B7010006
:1006F000F20100E08F282422312B0E53A542161858
:10070000121A140332E18F171B1D0E14112CA53D74
:1007100009272D252B3C3213800A2980FF00002158
:1007200000240027002A002D0030003300010100C2
:1007300000040107010A0100002200250028002B07
:10074000002E003100340002010000050108010BF9
:1007500001000020002300260029002C002F003279
:100760000000010000030106010901050505050758
:100770000508080808020202020A0A08080404041C
:100780000401010101010101010303030303030348
:1007900003040707070C0C0C0C0C0C0C0C020202D7
:1007A0000206060606060606060B0B0B0B0B0B0BCA
:1007B0000B01021020200808102040102040800269
:1007C0000102010804020101020408102040808097
:1007D000402010080402018004020180402010081B
:1007E00004020108040201010204081020408001F3
:1007F0000204081020408000000A0B02090C0D0EB4
:1008000008070304010000000000000000000000D1
:1008100000000000000000000000000000000000D8
:100820000000001211100000000000000000000095
:1008300000000000000000000000000000002E1377
:10084000441A11241FBECFEFD1E2DEBFCDBF00E0BE
:100850000CBF12E0A0E0B2E0E8E8FFE300E00BBF6D
:1008600002C007900D92A238B107D9F723E0A2E8A1
:10087000B2E001C01D92A939B207E1F714E0C0E26D
:10088000D4E000E006C021970109802FFE010E94FC
:10089000791DCF31D10780E00807A9F70E94EF1337
:1008A0000C94B21F0C9400008150823108F05AC0A1
:1008B000E82FF0E08827E05AFB4F8F4F0C94791D0A
:1008C00080048404720478047C04B20487048D04D8
:1008D000910497049B049F04A504A904B204AD04E9
:1008E000B304B704809180008F77809380000895CF
:1008F000809180008F7DF9CF80918000877FF5CF38
:1009000084B58F7784BD089584B58F7DFBCF8091AA
:10091000B0008F778093B00008958091B0008F7DF4
:10092000F9CF809190008F77809390000895809107
:1009300090008F7DF9CF80919000877FF5CF8091D7
:10094000A0008F778093A00008958091A0008F7DF4
:10095000F9CF8091A000877FF5CF809120018F771C
:10096000809320010895809120018F7DF9CF80919F
:100970002001877FF5CFCF93DF93282F30E0F90157
:10098000E950F84F8491F901EF54F84FD491F901EF
:10099000E559F84FC491CC23A1F081110E94540471
:1009A000EC2FF0E0EE0FFF1FEF5AF84FA591B49136
:1009B000EC91ED2381E090E009F480E0DF91CF91AC
:1009C000089580E090E0FACF1F93CF93DF93282F14
:1009D00030E0F901E950F84F8491F901EF54F84FF4
:1009E000D491F901E559F84FC491CC23A9F0162F01
:1009F00081110E945404EC2FF0E0EE0FFF1FE95C20
:100A0000F84FA591B4918FB7F894EC91111108C0EB
:100A1000D095DE23DC938FBFDF91CF911F91089596
:100A2000DE2BF8CF1F93CF93DF93C82F162F882389
:100A300039F0809117028230A9F5D0E0C130A1F4DD
:100A4000809115028F3F59F00E94BB04019739F441
:100A500060E0809115020E94E404D1E001C0D0E082
:100A6000809117028230D1F4CD7FC1F480911602BB
:100A70008F3FA1F00E94BB04019781F460E0809158
:100A800016020E94E404112369F080911802882361
:100A900069F08BEB92E10197F1F704C0112311F09B
:100AA000D111F3CFDF91CF911F9108958BE193E0A6
:100AB000F2CFCF93DF9390E0FC01EF54F84F2491F5
:100AC0008559984FFC0184918823D1F090E0880FDC
:100AD000991FFC01E35EF84FA591B491FC01E95C1C
:100AE000F84FC591D49161110EC09FB7F8948C91C5
:100AF000E22FE0958E238C932881E223E8839FBF29
:100B0000DF91CF9108958FB7F894EC91E22BEC939D
:100B10008FBFF6CF1F93CF93DF93182FEB0161E0C8
:100B20000E945905209739F460E0812FDF91CF9121
:100B30001F910C94E404CF3FD10511F461E0F5CF8F
:100B4000E12FF0E0E950F84FE491E150E23108F094
:100B5000B3C0F0E08827E055FA4F8F4F0C94791D11
:100B6000C205CA05CF05D905E3055C06ED05F50507
:100B7000FD05070611061B062A0634065C063E061E
:100B80004806520684B5806884BDC7BDDF91CF9109
:100B90001F91089584B5806284BDC8BDF7CF809150
:100BA0008000806880938000D0938900C093880083
:100BB000EDCF80918000806280938000D0938B0085
:100BC000C0938A00E3CF809180008860809380008A
:100BD000D0938D00C0938C00D9CF8091B0008068F5
:100BE0008093B000C093B300D1CF8091B0008062F9
:100BF0008093B000C093B400C9CF8091900080680A
:100C000080939000D0939900C0939800BFCF8091BB
:100C10009000806280939000D0939B00C0939A00D4
:100C2000B5CF80919000886080939000D0939D0014
:100C3000C0939C00ABCF8091A00080688093A000FF
:100C40008091A0008F7B8093A000D093A900C093D7
:100C5000A8009CCF8091A00080628093A000D093D8
:100C6000AB00C093AA0092CF8091A00088608093CF
:100C7000A000D093AD00C093AC0088CF809120013C
:100C8000806880932001D0932901C09328017ECFF2
:100C900080912001806280932001D0932B01C0932A
:100CA0002A0174CF80912001886080932001D09325
:100CB0002D01C0932C016ACFC038D1050CF03ECF76
:100CC00033CF3FB7F89480919A0290919B02A09104
:100CD0009C02B0919D0226B5A89B05C02F3F19F03C
:100CE0000196A11DB11D3FBFBA2FA92F982F8827AC
:100CF000BC01CD01620F711D811D911D42E0660F87
:100D0000771F881F991F4A95D1F708957F928F9278
:100D10009F92AF92BF92CF92DF92EF92FF920F938A
:100D20001F93CF93DF938C01C62FD42F20910D02F8
:100D300030910E022115310539F080910C0281307D
:100D400089F0823009F482C0DF91CF911F910F9119
:100D5000FF90EF90DF90CF90BF90AF909F908F90DB
:100D60007F900895F62E80910F02F81618F5CF2C7B
:100D7000D12C8091120290911302F601EE0FFF1F09
:100D8000E00FF11F91838083E0910D02F0910E023C
:100D9000EC0DFD1D61E080810E945905E0910D027E
:100DA000F0910E02EC0DFD1D61E080810E94E404D3
:100DB000FD0ED9CF83E290E00197F1F7F8940E94FD
:100DC00061064B01FC2E80910F02F81660F4E09151
:100DD0000D02F0910E02EF0DF11D60E080810E9486
:100DE0005905FD0EF0CF7894D12CC12C80911202C0
:100DF00090911302C816D90608F0A6CFF8940E9465
:100E000061066B01C818D9087C2E80910F027816F4
:100E1000D8F4E72CF12CE0910D02F0910E02EE0DCA
:100E2000FF1D80810E94BB04892B61F4EE0CFF1C26
:100E3000F801EE0DFF1D80819181C816D90610F4CE
:100E4000D182C0827D0EE1CF7894D0CF862F909151
:100E50000F02891750F4E82FF0E0EE0FFF1FE00FAC
:100E6000F11F118210828D0FF2CF40E080911402A9
:100E70004817A8F59C2F80910F02981770F5E92F5D
:100E8000F0E0D901AE0FBF1F8C91863308F0865376
:100E900060917B00582F5870677F562B50937B00D2
:100EA0008770806480937C0080917A008064809356
:100EB0007A0080917A0086FDFCCFA0917800B091F5
:100EC0007900EE0FFF1FE00FF11F608171816A0F43
:100ED0007B1F718360839D0FCECF4F5FC7CF809103
:100EE0000F02C81708F030CFEC2FF0E0EE0FFF1F15
:100EF000E00FF11F6091140270E0CB01959587958A
:100F000020813181820F931F0E94651D7183608350
:100F1000CD0FE5CF8F929F92AF92BF92CF92DF928B
:100F2000EF92FF926B017C010E9461064B015C0114
:100F3000C114D104E104F104B9F00E9461066819FA
:100F400079098A099B09683E73408105910580F300
:100F500021E0C21AD108E108F10888EE880E83E08A
:100F6000981EA11CB11CE4CFFF90EF90DF90CF90B2
:100F7000BF90AF909F908F90089538E0439FC0013D
:100F80001124807E977030E043E0359527954A958F
:100F9000E1F7822B932B70E0762F66276627787F08
:100FA000862B972B0895242F462F682F81E693E0F8
:100FB0000E94BD07E1E6F3E021E0218F908F878B4F
:100FC000918B808B938B828B08950895AF92BF9203
:100FD000CF92DF92EF92FF920F931F93CF93DF9305
:100FE0006C017B018B01040F151FEB015E01AE1834
:100FF000BF08C017D10759F06991D601ED91FC9156
:101000000190F081E02DC6011995892B79F7C50172
:10101000DF91CF911F910F91FF90EF90DF90CF90D4
:10102000BF90AF900895FC01538D448D252F30E083
:10103000842F90E0821B930B541710F0CF960895E5
:1010400001970895FC01918D828D981761F0A28D12
:10105000AE0FBF2FB11D5D968C91928D9F5F9F73D8
:10106000928F90E008958FEF9FEF0895FC01918D8E
:10107000828D981731F0828DE80FF11D858D90E0FB
:1010800008958FEF9FEF0895FC01918D228D892F98
:1010900090E0805C9F4F821B91098F739927089580
:1010A0008EEB92E00E94440821E0892B09F420E0B5
:1010B000822F0895FC01A48DA80FB92FB11DA35A4A
:1010C000BF4F2C91848D90E001968F739927848F68
:1010D000A689B7892C93A089B1898C91837080648B
:1010E0008C93938D848D981306C00288F389E02D2C
:1010F00080818F7D80830895EF92FF920F931F93DD
:10110000CF93DF93EC0181E0888F9B8D8C8D9813BA
:101110001AC0E889F989808185FF15C09FB7F894C6
:10112000EE89FF896083E889F98980818370806412
:1011300080839FBF81E090E0DF91CF911F910F915D
:10114000FF90EF900895F62E0B8D10E00F5F1F4F6C
:101150000F731127E02E8C8D8E110CC00FB607FC7B
:10116000FACFE889F989808185FFF5CFCE010E9409
:101170005A08F1CFEB8DEC0FFD2FF11DE35AFF4F15
:10118000F0829FB7F8940B8FEA89FB898081806297
:10119000CFCF6DE38EEB92E00C947C08682F8EEB42
:1011A00092E00C947C08CF93DF93EC01888D882328
:1011B000B9F0AA89BB89E889F9898C9185FD03C0BA
:1011C000808186FD0DC00FB607FCF7CF8C9185FF9F
:1011D000F2CF808185FFEDCFCE010E945A08E9CF82
:1011E000DF91CF91089580E090E0892B29F00E9453
:1011F000500881110E94000080E090E0892B49F0A6
:1012000080E090E0892B29F00E94000081110E946B
:10121000000080E090E0892B49F080E090E0892B8D
:1012200029F00E94000081110E94000080E090E0FF
:10123000892B49F080E090E0892B29F00E94000082
:1012400081110C9400000895EF92FF920F931F9369
:10125000DC011A960D911C911B9718962D913C91CB
:101260001997ED91FC910288F389E02D7B0150E004
:1012700040E070E060E019951F910F91FF90EF90B2
:101280000895FC01868D28E030E090E8882339F04D
:101290006EBD00000DB407FEFDCF8EB50895A1A16F
:1012A000B2A186A5462F4923A9F04C91842B8C939B
:1012B000A3A1B4A18C9147A5842B8C93A3A1B4A125
:1012C0004C9187A5809584238C9396952150310964
:1012D00031F708954C9180958423E9CF08958CBD12
:1012E0009DBD08951F93CF93DF93EC01162F8E8D34
:1012F000882321F08F8D98A10E946F09EFA1F8A596
:10130000808199A9892B8083EDA1FEA1908188A974
:10131000809589238083612FCE010E944109EDA130
:10132000FEA1808198A9892B8083DF91CF911F91A5
:1013300008951F93CF93DF93EC01162F8E8D882392
:1013400021F08F8D98A10E946F09EFA1F8A59081DF
:1013500089A9809589238083EDA1FEA1908188A928
:10136000809589238083612FCE010E944109EDA1E0
:10137000FEA1808198A9892B8083DF91CF911F9155
:101380000895611103C060E20C94990961E2FCCFF9
:10139000EF92FF920F931F93CF93DF93EC01E62E12
:1013A000142FF22E6AE20E94990960E0CE010E9499
:1013B00072096AA96E0DCE010E94720960E0CE0129
:1013C0000E9472096AA96F0DCE010E9472096BE238
:1013D000CE010E94990960E0CE010E9472096BA9BA
:1013E000610FCE010E94720960E0CE010E94720975
:1013F0006BA9600FCE010E9472096CE2CE01DF91F1
:10140000CF911F910F91FF90EF900C949909AF929B
:10141000BF92CF92DF92EF92FF920F931F93CF93E1
:10142000DF93EC015901680128853985621773073C
:101430000CF066C08A859B85481759070CF060C080
:10144000FB01EA0DFB1D2E173F071CF45901A61ADC
:10145000B70A9A012C0D3D1D821793071CF46C01ED
:10146000C41AD50A8D8D823091F4C701982F882730
:10147000990F990F990F9701207E3770822B932B2C
:10148000EF2CFF24E694E694E694E82AF92A0FEF7D
:10149000040F0C0D2FEF260F2A0DCE010E94C80954
:1014A0008E8D882321F08F8D98A10E946F09EFA166
:1014B000F8A5808199A9892B8083EDA1FEA1908157
:1014C00088A98095892380831C141D049CF48501C0
:1014D000101611065CF46F2DCE010E9441096E2D8D
:1014E000CE010E94410901501109F2CF81E0C81AD2
:1014F000D108EACFEDA1FEA1808198A9892B808334
:10150000DF91CF911F910F91FF90EF90DF90CF90DF
:10151000BF90AF900895CF92DF92EF92FF920F931A
:101520001F93CF93DF93EC0169017801888599853A
:10153000681779070CF052C02A853B85421753077C
:101540000CF04CC09B012C0D3D1D821793071CF421
:101550006C01C61AD70A2FEF260F2C0D042FCE01CF
:101560000E94C8098D8D823091F4C701982F882779
:10157000990F990F990F9701207E3770822B932B2B
:10158000EF2CFF24E694E694E694E82AF92A8E8D5F
:10159000882321F08F8D98A10E946F09EFA1F8A5F3
:1015A000808199A9892B8083EDA1FEA1908188A9D2
:1015B00080958923808381E0C81AD10848F06F2D77
:1015C000CE010E9441096E2DCE010E944109F3CF48
:1015D000EDA1FEA1808198A9892B8083DF91CF9115
:1015E0001F910F91FF90EF90DF90CF900895CF92D1
:1015F000DF92EF92FF920F931F93CF93DF93EC0153
:101600006901780188859985681779070CF053C0BE
:101610008A859B85481759070CF04DC09A012C0DFF
:101620003D1D821793071CF46C01C41AD50A0FEFF5
:10163000040F0C0D262FCE010E94C8098D8D82301B
:1016400091F4C701982F8827990F990F990F970147
:10165000207E3770822B932BEF2CFF24E694E694A8
:10166000E694E82AF92A0F2D8E8D882321F08F8D9C
:1016700098A10E946F09EFA1F8A5808199A9892BF3
:101680008083EDA1FEA1908188A980958923808324
:1016900081E0C81AD10848F0602FCE010E944109AC
:1016A0006E2DCE010E944109F3CFEDA1FEA18081F4
:1016B00098A9892B8083DF91CF911F910F91FF9083
:1016C000EF90DF90CF900895EF92FF920F93CF931A
:1016D000DF93EC01790177FD4BC088859985681708
:1016E00079070CF045C057FD43C08A859B85481794
:1016F0005907F4F501E0040F21E0260FCE010E9406
:10170000C8098E8D882321F08F8D98A10E946F09C2
:10171000EFA1F8A5808199A9892B8083EDA1FEA175
:10172000908188A98095892380838D8D823091F462
:10173000C701982F8827990F990F990F9701207E3D
:101740003770822B932BEF2CFF24E694E694E694DB
:10175000E82AF92A6F2DCE010E9441096E2DCE0193
:101760000E944109EDA1FEA1808198A9892B808367
:10177000DF91CF910F91FF90EF90089508952F92F0
:101780003F924F925F926F927F928F929F92AF9211
:10179000BF92CF92DF92EF92FF920F931F93CF935E
:1017A000DF93CDB7DEB72C970FB6F894DEBF0FBE30
:1017B000CDBF9C838B836A3061F5DC0154968C919C
:1017C000B8E08B9F90011124EB81FC818685978581
:1017D000820F931F978786871586148681E090E095
:1017E0002C960FB6F894DEBF0FBECDBFDF91CF9120
:1017F0001F910F91FF90EF90DF90CF90BF90AF902F
:101800009F908F907F906F905F904F903F902F9020
:1018100008956D3019F32B813C813C872B87D901CA
:101820001C96CD90DC901D9718968D919C911997E0
:10183000C816D9060CF07FC01E968D909C901F97FD
:101840001A968D919C911B97881699060CF073C07F
:101850005496BC91B983AB2EB12CC601E6E0BE9F75
:10186000800D911D1124181619060CF064C0C501D5
:1018700043E0880F991F4A95E1F7880D991D1816C6
:1018800019060CF058C0D90152960D90BC91A02DAC
:10189000BC83AB83F9010088F189E02DFE83ED83E1
:1018A000F5E06F9FB001112426011A826C197D09A1
:1018B0009B0120543E4F3A8729873A81E0E035303A
:1018C00029F0E985FA85E40DF51DE4911401712CE8
:1018D000612C8E2F90E098878F83E0FF6AC0AB85E4
:1018E000BC85ED91FC91B981B13009F055C00084FF
:1018F000F185E02D2D813E81A401460D571DB201D9
:101900008B859C851995EF81F885F595E795FFEF17
:101910006F1A7F0A2A0C3B1C28E062167104C9F674
:101920003FEF431A530ACA0CDB1C5A815F5F5A838C
:10193000563009F0C2CFAB85BC8554964C91549774
:10194000242F30E01C968D919C91B6E04B9F800D2A
:10195000911D1124EB85FC85958784874689442356
:1019600009F43CCF6AEF6203A001639F500D11247C
:1019700060857185460F571F481759070CF02ECF09
:1019800083E0220F331F8A95E1F786859785280F1C
:10199000391F3787268720CF0288F389E02DED8015
:1019A000FE8085019501A101B6018B859C85199565
:1019B000AACFEB81FC812D813E81E217F30709F468
:1019C000A2CFAB85BC85ED91FC91B981B13031F4EA
:1019D0000084F185E02D2B813C818ECF0288F38934
:1019E000E02DEB80FC80DDCFEF92FF920F931F93F1
:1019F000DC011A960D911C911B9718962D913C9124
:101A00001997ED91FC910288F389E02D7B0150E05C
:101A100040E070E060E019951F910F91FF90EF900A
:101A200008956F927F928F929F92AF92BF92CF92C2
:101A3000DF92EF92FF920F931F93CF93DF936C018E
:101A40005A014801EB013B01620E731EC615D70512
:101A500074F4D601ED91FC910484F585E02D8701A5
:101A60009401A501BE01C60119952196EFCFDF9122
:101A7000CF911F910F91FF90EF90DF90CF90BF908B
:101A8000AF909F908F907F906F900895EF92FF920C
:101A90000F931F93260F371F21503109DC01ED9161
:101AA000FC910284F385E02D78018A0119951F913C
:101AB0000F91FF90EF900895EF92FF920F931F9375
:101AC000240F351F21503109DC01ED91FC91028476
:101AD000F385E02D780189019B0119951F910F91E4
:101AE000FF90EF9008956F927F928F929F92AF92A6
:101AF000BF92CF92DF92EF92FF920F931F93CF93FB
:101B0000DF93EC016B015A0139014801E881F98149
:101B10000684F785E02D87011995A501480D591D0B
:101B200041505109E881F9810684F785E02D930140
:101B3000B601CE011995E881F9810484F585E02D7F
:101B40009401A501B601CE011995C60CD71CB601AA
:101B500061507109E881F9810484F585E02D9401D3
:101B6000A501CE011995DF91CF911F910F91FF90A3
:101B7000EF90DF90CF90BF90AF909F908F907F902D
:101B80006F9008952F923F924F925F926F927F9243
:101B90008F929F92AF92BF92CF92DF92EF92FF927D
:101BA0000F931F93CF93DF9300D000D0CDB7DEB754
:101BB0003C016A013E832D83FC82EB825801A41A0A
:101BC000B50AB7FE03C0B194A194B1088D809E8080
:101BD000861A970A97FE03C09194819491088A14FB
:101BE0009B045CF0902F812F0D811E819D838E833D
:101BF0009C2D8D2D6B01692F782F0C151D055CF028
:101C00009D818E817E836D83692F782F902F812F08
:101C10008601C92ED82E1601201A310A2B012D81DA
:101C20003E81421A530A57FE03C051944194510811
:101C3000710137FE03C03FEFE31AF30AF594E7940E
:101C40008D819E81861797075CF5A1E0B0E0BA838D
:101C5000A983C016D1064CF1D301ED91FC9100840B
:101C6000F185E02D2B813C81A8016D817E818A1454
:101C70009B041CF04D815E81B801C3011995E418E5
:101C8000F508F7FE0AC02D813E8189819A81280FCF
:101C9000391F3E832D83E20CF31C0F5F1F4FD9CFFA
:101CA0002FEF3FEF3A832983D4CF26960FB6F894CF
:101CB000DEBF0FBECDBFDF91CF911F910F91FF907F
:101CC000EF90DF90CF90BF90AF909F908F907F90DC
:101CD0006F905F904F903F902F900895EF92FF92FA
:101CE0000F931F9320917A03222381F0AC0100917E
:101CF0007803109179038617970769F42EE930E08D
:101D000061E070E081E693E00E948B0A1F910F91E1
:101D1000FF90EF90089578018B012FE930E061E0AA
:101D200070E081E693E00E94C20DF0CF90E080E089
:101D300008950F931F93CF93DF938C01EB0170E015
:101D400060E088E00E948A0570E060E089E00E941F
:101D50008A0561E08CE00E94E404B80183E00E94FF
:101D60008A0561E08DE00E94E404BE018BE0DF9112
:101D7000CF911F910F910C948A05CF92DF92EF9231
:101D8000FF92CF93DF93C82F80911802882369F0C8
:101D90008C2F0E94BB04019741F460E08C2F0E94BD
:101DA000E4048BEB92E10197F1F761E08C2F0E9444
:101DB000E4040E9461066B01809118028823A9F057
:101DC00080911902882389F0F894D0E0809119025B
:101DD000D81750F460E08C2F0E94E40461E08C2F4F
:101DE0000E94E404DF5FF2CF7894C601DF91CF91C7
:101DF000FF90EF90DF90CF9008950F931F93CF93B4
:101E0000DF93C82F882359F180911702823029F17E
:101E1000D0E0809117028230D1F5CD7FC1F580915D
:101E200016028F3FA1F190911802992361F18091E0
:101E300016020E94BD0E8C0180911802882371F158
:101E4000C3E2D0E00E946106601B710B6C327140EE
:101E500000F5CE010197F1F7F5CFC130C9F68091B9
:101E600015028F3FA9F290911802992339F08091C1
:101E700015020E94BD0E8C01D1E0CBCF0E94BB04A5
:101E8000892BA9F3C5CF0E94BB04892B81F2D11104
:101E9000D3CFDF91CF911F910F9108958BE193E004
:101EA0000197F1F7F6CF6F927F928F929F92AF9248
:101EB000BF92CF92DF92EF92FF920F931F93CF9337
:101EC000DF93D82E80910202882309F446C080E077
:101ED0000E94FD0E41E060E08EE992E00E948606DD
:101EE00061E080E00E941205B0900F02CEE9D2E0DE
:101EF000E0900502F09006020091030210910402A6
:101F0000C12CBC1451F1D701ED91FD917D01D80197
:101F10008D919D918D01E81BF90BC9F028813981C4
:101F200050E040E0281B390B41095109A8EEB3E00D
:101F30000E947E1C9F0150E040E00E945F1C293EF1
:101F4000B3E03B0714F028EE33E037FF02C030E087
:101F500020E029933993C394D4CFC0900F020EE9A7
:101F600012E0D0E0C0E0712CF0E0E0E0812C912C98
:101F70005401612C88EEE82E83E0F82EC71409F195
:101F8000D8014D915D918D01DD2021F0C701841BA9
:101F9000950BAC01493C510588F44333510550F091
:101FA0009A01DE010E94811D860E971EA81EB91E91
:101FB000E40FF51F7394C851DC4FE0CF662463949F
:101FC000EFCF61102BC0AC2DA150BB0B44EF51E003
:101FD000A49FC001A59F900DB49F900D1124409126
:101FE0001A0250911B024817590728F148EE53E096
:101FF000A49FC001A59F900DB49F900D1124DF9167
:10200000CF911F910F91FF90EF90DF90CF90BF90F5
:10201000AF909F908F907F906F9008959F0150E0B8
:1020200040E0C501B4010E94911CC90130931B021C
:1020300020931A02E4CF90E080E0E1CFFB01019011
:102040000020E9F73197AF01461B570BDC01ED91FA
:10205000FC910280F381E02D19948F929F92AF92B0
:10206000BF920F931F93CF93DF93CDB7DEB7A197A6
:102070000FB6F894DEBF0FBECDBF19A2423008F4F0
:102080004AE08E010F5D1F4F842E912CB12CA12CA4
:10209000A50194010E94911CE62FB901CA01EA3002
:1020A00004F5E05DD801EE938D01232B242B252B25
:1020B00079F790E080E0109729F0BD018EEB92E077
:1020C0000E941E10A1960FB6F894DEBF0FBECDBFC2
:1020D000DF91CF911F910F91BF90AF909F908F9004
:1020E0000895E95CDFCFCF92DF92EF92FF92CF931A
:1020F000DF936C01990FEE08FF08F7FE17C08DE221
:102100000E94CE08EC0166277727CB016C197D0968
:102110008E099F094AE00E942D108C0F9D1FDF91B0
:10212000CF91FF90EF90DF90CF9008954AE0C701E4
:10213000B601DF91CF91FF90EF90DF90CF900C949C
:102140002D108F929F92AF92BF92CF92DF92EF921B
:10215000FF920F931F93CF93DF93CDB7DEB7C85F86
:10216000D1090FB6F894DEBF0FBECDBF8C01D62EBD
:10217000DC018C91811157C01396ED90FC90609119
:102180000F0270E0660F771FC7010E94AD1EF801B5
:1021900094838383892BB9F4C7010E94241EC850FD
:1021A000DF4F0FB6F894DEBF0FBECDBFDF91CF91EA
:1021B0001F910F91FF90EF90DF90CF90BF90AF9065
:1021C0009F908F900895E180F28060910F0270E0FF
:1021D000660F771FC7010E94AD1EAC01F801928304
:1021E000818390E041155105B9F280910F02981753
:1021F000B8F4292F30E0220F331FD8011396ED9148
:10220000FC91E20FF31F1182108260911202709113
:102210001302240F351FF901718360839F5FE5CF9F
:1022200081E0D8018C93C12C43E2E42EF12CB1E083
:10223000DB1638F0E2E0ED15D0F5F3E0DF1609F437
:102240006DC061E080E00E94120541E060E0CE01D7
:1022500085549F4F0E948606A0900F024E018FE387
:10226000880E911CFE01E358FF4F9E0125543F4FFD
:10227000B12CAF01AB1409F4A1C0D9018D919D918E
:102280009D01CC2009F492C06081718168177907A3
:1022900008F48CC0D4016D917C918617970708F4DF
:1022A00089C0B394B2E08B0E911C3296E3CF80E0EC
:1022B0000E94FD0E41E060E0CE0185549F4F0E94D8
:1022C000860661E080E00E941205A2E0DA12C4CF27
:1022D00041E060E0CE0101960E94860670910F02F7
:1022E0002091120230911302FE01E554FF4FDE01EE
:1022F000119660E0761709F4AFCF4D915D91808122
:102300009181820F931F841B950B2817390708F4BE
:102310004AC0918380836F5F3296ECCF60E082E0A9
:102320000E9412050E9461064B0181E00E94FD0E91
:1023300080911802882359F00E9461066819790972
:10234000603B744020F4C7010197F1F7F5CF42E0FC
:1023500060E0CE0185549F4F0E94860660E081E0D8
:102360000E9412050E9461064B0182E00E94FD0E50
:1023700080911802882359F00E9461066819790932
:10238000603B744020F4C7010197F1F7F5CF42E0BC
:1023900061E0CE0185549F4F0E94860661E080E097
:1023A0000E94120559CF31832083B5CF918380835A
:1023B000C11070CFD4018D939C9373CFC394EAE086
:1023C000CE1235CF20E080910F02281708F0E7CE1B
:1023D000822F90E0880F991FE1E0F0E0EC0FFD1FE5
:1023E000E80FF91F66AD77ADD8011396ED91FC911A
:1023F000E80FF91FA081B181A617B70710F4718308
:102400006083FA01E80FF91F60817181D80111968C
:10241000ED91FC91E80FF91F808191816817790790
:1024200010F4718360832F5FCECF0F931F93CF93F0
:10243000DF93EC0188819981009759F02A813B81D3
:102440002617370730F081E0DF91CF911F910F9170
:1024500008958B016F5F7F4F0E94AD1E009759F06A
:10246000998388831B830A832C813D81232B59F711
:10247000FC011082E8CF80E0E7CF0E948E1F1F9200
:102480000F920FB60F9211242F933F938F939F9328
:10249000AF93BF938091960290919702A09198027A
:1024A000B09199023091950223E0230F2D3758F512
:1024B0000196A11DB11D20939502809396029093E1
:1024C0009702A0939802B093990280919A029091FA
:1024D0009B02A0919C02B0919D020196A11DB11D8D
:1024E00080939A0290939B02A0939C02B0939D02CA
:1024F000BF91AF919F918F913F912F910F900FBE00
:102500000F901F90189526E8230F0296A11DB11D6C
:10251000D2CF1F920F920FB60F9211240BB60F92CB
:102520002F933F934F935F936F937F938F939F93DB
:10253000AF93BF93EF93FF938EEB92E00E945A0804
:10254000FF91EF91BF91AF919F918F917F916F918B
:102550005F914F913F912F910F900BBE0F900FBE47
:102560000F901F9018951F920F920FB60F92112483
:102570000BB60F922F938F939F93EF93FF93E0915E
:10258000CE02F091CF028081E091D402F091D50289
:1025900082FD1DC090818091D7028F5F8F73209143
:1025A000D802821741F0E091D702F0E0E254FD4FEB
:1025B000958F8093D702FF91EF919F918F912F91EB
:1025C0000F900BBE0F900FBE0F901F90189580813B
:1025D000F2CFCF92DF92EF92FF920F931F93E82FEB
:1025E000F92F05C0015011092109310961F19081CC
:1025F00096239417B9F305C0015011092109310937
:1026000011F1908196239413F7CFC12CD12CE12C9A
:10261000F12C0AC08FEFC81AD80AE80AF80A0C157C
:102620001D052E053F0579F080818623841791F3DF
:102630006C2D7D2D8E2D9F2D1F910F91FF90EF9072
:10264000DF90CF90089560E070E080E090E01F910F
:102650000F91FF90EF90DF90CF9008951092C102FC
:102660001092C00288EE93E0A0E0B0E08093C20236
:102670009093C302A093C402B093C50282E592E096
:102680009093BF028093BE0285EC90E09093CB02C2
:102690008093CA0284EC90E09093CD028093CC02A8
:1026A00080EC90E09093CF028093CE0281EC90E09A
:1026B0009093D1028093D00282EC90E09093D30269
:1026C0008093D20286EC90E09093D5028093D4025E
:1026D0001092D7021092D8021092D9021092DA0208
:1026E000109264031092630320E830E03093660395
:1026F0002093650340EA50E05093680340936703DA
:102700001092760310926E0310926D031092700374
:1027100010926F0381E0809375036FEF7FEF7093EA
:1027200074036093730370937203609371038093D7
:10273000770390E5909380031092810390E3909348
:102740008A039EE290938B039FE290938C03809385
:102750007F0310928E0310928D0384E692E0909393
:1027600062038093610350936A034093690330933B
:102770006C0320936B0310925C0310925B03109226
:102780005E0310925D031092600310925F0370E08D
:1027900060E08BE593E00E94151220915B0330917D
:1027A0005C03811113C02115310519F0C9010E9484
:1027B000241E10925C0310925B031092600310922F
:1027C0005F0310925E0310925D0308951092600300
:1027D00010925F0360E872E0C9010C949C1FCF93D4
:1027E000DF93CDB7DEB768970FB6F894DEBF0FBEA4
:1027F000CDBF789484B5826084BD84B5816084BD8A
:1028000085B5826085BD85B5816085BD80916E008E
:10281000816080936E0010928100809181008260BF
:1028200080938100809181008160809381008091FC
:1028300080008160809380008091B10084608093EB
:10284000B1008091B00081608093B00080919100D0
:1028500082608093910080919100816080939100CB
:10286000809190008160809390008091A1008260AF
:102870008093A1008091A10081608093A10080914C
:10288000A00081608093A0008091210182608093EC
:10289000210180912101816080932101809120019B
:1028A00081608093200180917A00846080937A0017
:1028B00080917A00826080937A0080917A008160B2
:1028C00080937A0080917A00806880937A001092D9
:1028D000C100E091CE02F091CF0282E08083E091CE
:1028E000CA02F091CB021082E091CC02F091CD02AD
:1028F0008FEC80831092D602E091D202F091D30245
:1029000086E08083E091D002F091D10280818061E5
:102910008083E091D002F091D10280818860808331
:10292000E091D002F091D102808180688083E091B3
:10293000D002F091D10280818F7D808361E08CE0B4
:102940000E94590561E08DE00E94590561E083E035
:102950000E94590561E08BE00E94590561E089E021
:102960000E94590561E088E00E94590561E08AE211
:102970000E94590560E08BE20E9459051092940371
:102980001092930361E080918B030E94590561E0EE
:1029900080918A030E94590580918A0390E0FC018E
:1029A000E559F84FE491F0E0EE0FFF1FE95CF84FB6
:1029B000259134913093870320938603FC01EF54D3
:1029C000F84FE491E093910380918B0390E0FC0138
:1029D000E559F84FE491F0E0EE0FFF1FE95CF84F86
:1029E000259134913093890320938803FC01EF549F
:1029F000F84FE491E093920380917F03882309F4D8
:102A000092C01FB7F89480918202811127C0E0EA3A
:102A1000F7E08491E6EEF7E09491E82FF0E0EE0F16
:102A2000FF1FE35EF84FA591B491EC91E92321F4E7
:102A300061E085E30E94E40461E085E30E945905BA
:102A40008CB580618CBD8CB580648CBD61E084E305
:102A50000E94590561E083E30E945905809182023A
:102A60008F5F809382021FBF80E580938003109266
:102A70008103E0918603F091870390818091910317
:102A800080958923808380918C03882321F161E0E4
:102A90000E94590561E080918C030E94E40464EF78
:102AA00071E080E090E00E948A0760E080918C03F2
:102AB0000E94E40464EF71E080E090E00E948A07E5
:102AC00061E080918C030E94E40464EF71E080E097
:102AD00090E00E948A07EBEBF6E0D4900CEB16E056
:102AE000DA94FFEFDF1609F47EC0F801649181E605
:102AF00093E00E9499095801F2E0AF0EB11CF80171
:102B00003196C4900C2D0F777501102F115008F4D9
:102B100053C0F701649181E693E00E947209FFEFD0
:102B2000EF1AFF0AF3CF61E080918E030E945905EE
:102B300061E080918D030E94590580918E0390E0A1
:102B4000FC01E559F84FE491F0E0EE0FFF1FE95C5E
:102B5000F84FA591B491B0938503A09384038F544B
:102B6000984FFC0184918093900320918D0330E075
:102B7000F901E559F84FE491F0E0EE0FFF1FE95C31
:102B8000F84F459154915093830340938203F90188
:102B9000EF54F84FE491E0938F03EC9180958E23EE
:102BA0008C93E0918203F0918303908180918F0355
:102BB0008095892380835DCF0A0D1B2D111DC7FED3
:102BC0008FCF78012FEFE21AF20AF801649170E0DA
:102BD0006F3F710511F464EF71E090E080E00E94B6
:102BE0008A0787017DCF66E381E693E00E94990919
:102BF00011E01093760368EA81E693E00E9472097F
:102C000080EA90E090936A038093690380E890E003
:102C100090936C0380936B0370E060E081E693E037
:102C20000E9424094FEF6FEF8FEF0E94D30710939C
:102C300075036CE670E08CE690E00E946E0E6FE724
:102C400070E08FE790E00E946E0E40E060E08FEF52
:102C50000E94D30710937D0380E098EF90937C034C
:102C600080937B036091690370916A0377FF02C0D0
:102C70006F5F7F4F759567956B01F9E0CF1AD108AB
:102C8000E12CF8EFFF2E03E010E023E130E04BE60B
:102C900050E0B60181E693E00E94070A80917A0332
:102CA000882369F0E0907803F090790323E130E025
:102CB0004BE650E0B60181E693E00E94730D81E09F
:102CC00080930C0280911002909111029093130254
:102CD0008093120200910D0210910E0260E170E0EB
:102CE000C8010E94AD1E90930E0280930D02892BA5
:102CF00009F0B0C2C8010E94241E80EA90E09093BF
:102D000088028093870290938A028093890261E00F
:102D100070E088E00E948A0561E070E089E00E942E
:102D20008A0508EC10E061E082E092E00E94A110C8
:102D300001501109C1F7F12CE12CE0910302F0914F
:102D40000402EE0DFF1D6081718190E080E04AE099
:102D50000E942D1080E20E94CE0822E0E20EF11CBB
:102D600080E2E816F10449F76EE772E08EEB92E03C
:102D70000E941E10E0910502F0910602E00FF11F83
:102D80006081718190E080E04AE00E942D1080E235
:102D90000E94CE080E5F1F4F0032110559F76EE7F3
:102DA00072E08EEB92E00E941E1068EE73E080E00D
:102DB00090E00E948A07FE0131966F0142E7842E5F
:102DC000912C50EA252E312C30E1A32EB12C0E94FB
:102DD000D71A1C8A1B8A1E8A1D8A188E1F8A22E017
:102DE00030E040E050E00E945F1CCB014AE0B601B9
:102DF0000E942F1BF60101900020E9F731978F0107
:102E00000C191D09B801CE0143960E9415122B8999
:102E10003C89811137C22115310519F0C9010E9481
:102E2000241E1C8A1B8A188E1F8A1E8A1D8A809166
:102E30005B0390915C03009709F42DC26B897C8938
:102E40006115710509F425C240915D0350915E033F
:102E50002F89388D4217530708F41BC20E949C1F0C
:102E60008F89988D9093600380935F03188E1F8ADB
:102E70008B899C89009711F00E94241E80915F032A
:102E800090916003892B09F01DC2109283022EE2FB
:102E9000E22E22E0F22E87014FEF6FEF8FEF0E94BC
:102EA000D30780917A038823F9F0F80120813181DA
:102EB0001092770380917803909179039093720335
:102EC00080937103909374038093730330936E0324
:102ED00020936D039092700380926F0363E872E019
:102EE00081E693E00E941E100E5F1F4FF2E00E3449
:102EF0001F0791F640E060E080E00E94D3078091D8
:102F00007A038823F9F0F701208131811092770349
:102F10008091780390917903909372038093710369
:102F2000909374038093730330936E0320936D0327
:102F30009092700380926F0363E872E081E693E001
:102F40000E941E10F2E0EF0EF11C0E151F0591F607
:102F500021E0A21AB10809F03ACF60E08AE20E94AB
:102F6000E40483E090E00197F1F761E08AE20E94D7
:102F7000E40483E290E00197F1F760E08AE20E94C6
:102F8000E404ECEDF7E06491E6E9F7E08491E82FE2
:102F9000F0E0EE0FFF1FEF5AF84F8591949100E497
:102FA00012E42FE030E0462F0E94E91280E00E94F8
:102FB000530F909394028093930280919E0290917C
:102FC0009F02883EF3E09F0709F089C18091A0022B
:102FD0009091A102883E934071F58091A202909158
:102FE000A302883E934039F58091A6029091A702F2
:102FF000892B09F58091A8029091A902892BD9F417
:103000008091AC029091AD02883E9340A1F48091F2
:10301000AE029091AF02883E934069F48091B00275
:103020009091B102883E934031F481E090E090931A
:103030000102809300028091000290910102813090
:10304000910509F090C180E00E94530F9093940283
:103050008093930200910002109101028EE9E82E04
:1030600082E0F82EF701619171917F0190E080E09C
:103070004AE00E942D1089E00E94CE088EEB92E07B
:103080008E159F0579F7609193027091940290E0FC
:1030900080E04AE00E942D100E94C90880918F02B2
:1030A000909190020E9473100E94C9088091890239
:1030B00090918A020E9473100E94C9088091870231
:1030C000909188020E9473100E94C908C8010E9452
:1030D00073100E94C9084090910250909202052CF2
:1030E000000C660877084AE0C301B20177FE0BC006
:1030F0008DE20E94CE0866277727CB0164197509F7
:10310000860997094AE00E942D106EE772E08EEB67
:1031100092E00E941E1064EF71E080E090E00E9457
:103120008A07E0909302F0909402C7016AE070E091
:103130000E94651D625C71407093900260938F02E3
:1031400080918D0290918E025B01A81AB90A0091BC
:103150008B0210918C02060F171F10938C020093A4
:103160008B0270938E0260938D02072E000C880BE9
:10317000990B0E94661B20E030E040EC5FE30E9468
:10318000A11B2B013C01B801110F880B990B0E9468
:10319000661B20E030E0A9010E94A11B9B01AC014D
:1031A000C301B2010E94C31C2B013C01B501BB0C41
:1031B000880B990B0E94661B20E030E040E05FE343
:1031C0000E94A11B9B01AC01C301B2010E94C31C60
:1031D0000E942F1D9101261B370B30938A022093EA
:1031E00089026A557F4F7093880260938702121696
:1031F000130624F010928A021092890280918902AB
:1032000090918A028F3F910534F08FEF90E0909378
:103210008A02809389021616170624F010928802FB
:103220001092870280918702909188028F3F9105CA
:1032300034F08FEF90E09093880280938702E1143E
:10324000F10409F095C060EA70E080EA90E00E9425
:10325000990EAFC0A6E2B2E090E080E02D91E0913F
:103260000D02F0910E02E80FF91F208301968031C4
:103270009105A1F780E180930F0210920202109253
:1032800007023BCD188F0F8BB601C9010E949C1F0E
:10329000CECD0E94241E8B899C8990935C038093E1
:1032A0005B038D899E8990935E0380935D038F8974
:1032B000988D9093600380935F031C8A1B8A1E8AFB
:1032C0001D8AD4CD60915B0370915C0341E050E0B6
:1032D00083E892E00E94A31F10928402D8CD892B2C
:1032E00009F0A9CE8091A0029091A102892B09F04A
:1032F000A2CE8091A2029091A302892B09F09BCECD
:103300008091A6029091A702883E934009F093CE47
:103310008091A8029091A902883E934009F08BCE3B
:103320008091AC029091AD02892B09F084CE8091FE
:10333000AE029091AF02892B09F07DCE8091B00250
:103340009091B102892B09F076CE10920102109271
:1033500000028091910290919202019690939202C4
:103360008093910268CE892B09F074CE81E06CCEF7
:103370009CEAE9169DE0F906F9F470E060E088E067
:103380000E948A0570E060E089E00E948A0560E0A2
:103390008CE00E94E4046FEF70E083E00E948A05F5
:1033A00061E08DE00E94E4046FEF70E08BE00E942A
:1033B0008A050E94F30808CDECE7EE16E5E1FE066B
:1033C000A9F470E060E088E00E948A0570E060E0A7
:1033D00089E00E948A0561E08CE00E94E4046FEFBE
:1033E00070E083E00E948A0560E0DBCFF8E2EF1630
:1033F000F3E2FF0669F48091000290910102892BAB
:1034000039F481E090E090938602809385021BCF8F
:103410008091A2029091A302019769F58091A40284
:103420009091A502019739F58091A6029091A7028B
:10343000019709F58091A8029091A9020197D9F40A
:103440008091AA029091AB020197A9F48091AC02FD
:103450009091AD02019779F4809185029091860256
:10346000019749F461E089E00E94E40461E088E0AA
:103470000E94E4049ECF6091890270918A0280913B
:10348000870290918802E3CE80915B0390915C0368
:10349000009711F00E94241E809115028F3F31F099
:1034A00060E00E9459058FEF80931502809116020B
:1034B0008F3F31F060E00E9459058FEF8093160234
:1034C0001092170280910D0290910E02009711F058
:1034D0000E94241E8091050290910602009711F02F
:1034E0000E94241E80910A0290910B02009711F015
:1034F0000E94241E8091030290910402009711F013
:103500000E94241E8091080290910902009711F0F8
:103510000C94241E08958F929F92AF92BF92CF92E7
:10352000DF92EF92FF92CF93DF93EC016881798174
:103530008A819B81611571058105910521F464E201
:1035400079ED8BE597E02DE133EF41E050E00E940B
:103550005F1C49015A019B01AC01A7EAB1E40E943A
:103560007E1C6B017C01ACEEB4EFA50194010E94BE
:103570008C1CC60ED71EE81EF91EF7FE06C081E0A1
:10358000C81AD108E10880E8F80AC882D982EA821C
:10359000FB82C701B6019F77DF91CF91FF90EF903B
:1035A000DF90CF90BF90AF909F908F9008958F92B3
:1035B0009F92AF92BF92CF92DF92EF92FF92609173
:1035C0001C0270911D0280911E0290911F026115D4
:1035D00071058105910521F464E279ED8BE597E0B1
:1035E0002DE133EF41E050E00E945F1C49015A0198
:1035F0009B01AC01A7EAB1E40E947E1C6B017C0137
:10360000ACEEB4EFA50194010E948C1CC60ED71E2F
:10361000E81EF91EF7FE06C081E0C81AD108E108CD
:1036200080E8F80AC0921C02D0921D02E0921E02AD
:10363000F0921F02C701B6019F77FF90EF90DF90D5
:10364000CF90BF90AF909F908F90089560931C0291
:1036500070931D0280931E0290931F020895BB2752
:103660004A3031F4992322F4BDE2909581959F4F21
:103670000C943B1BBB27FB015527AA27880F991FDA
:10368000AA1FA41710F0A41B83955051B9F7A05D91
:10369000AA3308F0A95DA193009779F7B111B1930E
:1036A0001192CB010C94541BDC01FC01672F71912A
:1036B0007723E1F7329704C07C916D937083629118
:1036C000AE17BF07C8F30895E89409C097FB3EF40E
:1036D00090958095709561957F4F8F4F9F4F99235F
:1036E000A9F0F92F96E9BB279395F69587957795DD
:1036F0006795B795F111F8CFFAF4BB0F11F460FF9D
:103700001BC06F5F7F4F8F4F9F4F16C0882311F0F4
:1037100096E911C0772321F09EE8872F762F05C008
:10372000662371F096E8862F70E060E02AF09A95A3
:10373000660F771F881FDAF7880F9695879597F998
:1037400008950E94B41B0C94251C0E94171C38F08D
:103750000E941E1C20F0952311F00C940E1C0C945A
:10376000141C11240C94591C0E94361C70F3959F54
:10377000C1F3950F50E0551F629FF001729FBB2768
:10378000F00DB11D639FAA27F00DB11DAA1F649F04
:103790006627B00DA11D661F829F2227B00DA11DB7
:1037A000621F739FB00DA11D621F839FA00D611D3D
:1037B000221F749F3327A00D611D231F849F600D5E
:1037C000211D822F762F6A2F11249F5750409AF087
:1037D000F1F088234AF0EE0FFF1FBB1F661F771F13
:1037E000881F91505040A9F79E3F510580F00C94DE
:1037F0000E1C0C94591C5F3FE4F3983ED4F386955D
:1038000077956795B795F795E7959F5FC1F7FE2B7D
:10381000880F911D9695879597F9089597F99F6759
:1038200080E870E060E008959FEF80EC0895002448
:103830000A941616170618060906089500240A9415
:1038400012161306140605060895092E0394000C9B
:1038500011F4882352F0BB0F40F4BF2B11F460FF2A
:1038600004C06F5F7F4F8F4F9F4F089557FD905853
:10387000440F551F59F05F3F71F04795880F97FB34
:10388000991F61F09F3F79F08795089512161306EE
:103890001406551FF2CF4695F1DF08C0161617061D
:1038A0001806991FF1CF8695710561050894089552
:1038B000E894BB2766277727CB0197F90895052E53
:1038C00097FB1EF400940E94761C57FD07D00E94BF
:1038D000911C07FC03D04EF40C94761C5095409537
:1038E000309521953F4F4F4F5F4F089590958095AC
:1038F000709561957F4F8F4F9F4F08950E94B31C25
:10390000A59F900DB49F900DA49F800D911D112433
:103910000895B7FF0C947E1C0E947E1C821B930BA3
:103920000895A1E21A2EAA1BBB1BFD010DC0AA1F00
:10393000BB1FEE1FFF1FA217B307E407F50720F018
:10394000A21BB30BE40BF50B661F771F881F991F93
:103950001A9469F760957095809590959B01AC01DC
:10396000BD01CF010895A29FB001B39FC001A39FE5
:10397000700D811D1124911DB29F700D811D1124A8
:10398000911D08955058BB27AA270E94DA1C0C9459
:10399000251C0E94171C38F00E941E1C20F039F4D0
:1039A0009F3F19F426F40C94141C0EF4E095E7FBE9
:1039B0000C940E1CE92F0E94361C58F3BA176207AC
:1039C00073078407950720F079F4A6F50C94581C2A
:1039D0000EF4E0950B2EBA2FA02D0B01B90190012A
:1039E0000C01CA01A0011124FF27591B99F0593F6E
:1039F00050F4503E68F11A16F040A22F232F342FB6
:103A00004427585FF3CF469537952795A795F04003
:103A10005395C9F77EF41F16BA0B620B730B840B18
:103A2000BAF09150A1F0FF0FBB1F661F771F881FD0
:103A3000C2F70EC0BA0F621F731F841F48F4879528
:103A400077956795B795F7959E3F08F0B0CF93951A
:103A5000880F08F09927EE0F9795879508950E9493
:103A6000361D6894B1110C94591C08950E943E1C97
:103A700088F09F5798F0B92F9927B751B0F0E1F02F
:103A8000660F771F881F991F1AF0BA95C9F714C0DF
:103A9000B13091F00E94581CB1E008950C94581C6C
:103AA000672F782F8827B85F39F0B93FCCF3869518
:103AB00077956795B395D9F73EF490958095709575
:103AC00061957F4F8F4F9F4F0895AA1BBB1B51E1FC
:103AD00007C0AA1FBB1FA617B70710F0A61BB70B7E
:103AE000881F991F5A95A9F780959095BC01CD0123
:103AF0000895EE0FFF1F881F8BBF0790F691E02DF2
:103B000019940E94B31CB7FF0895821B930B08956C
:103B10000F931F93CF93DF938230910510F482E0CF
:103B200090E0E0919703F091980330E020E0B0E05E
:103B3000A0E0309799F42115310509F44AC0281BFB
:103B4000390B24303105D8F58A819B8161157105C7
:103B500089F1FB0193838283FE0111C04081518171
:103B60000281138148175907E0F04817590799F463
:103B7000109761F012960C93129713961C9332963D
:103B8000CF01DF91CF911F910F910895009397037B
:103B900010939803F4CF2115310551F042175307C4
:103BA00038F0A901DB019A01BD01DF01F801C1CFA5
:103BB000EF01F9CF9093980380939703CDCFFE0147
:103BC000E20FF31F819391932250310939832883A7
:103BD000D7CF2091950330919603232B41F4209168
:103BE0002202309123023093960320939503209173
:103BF0002002309121022115310541F42DB73EB745
:103C00004091240250912502241B350BE09195032D
:103C1000F0919603E217F307A0F42E1B3F0B281731
:103C2000390778F0AC014E5F5F4F2417350748F035
:103C30004E0F5F1F5093960340939503819391938A
:103C40009FCFF0E0E0E09CCFCF93DF930097E9F0C7
:103C5000FC01329713821282A0919703B0919803CE
:103C6000ED0130E020E01097A1F420813181820F36
:103C7000931F20919503309196032817390709F077
:103C800061C0F0939603E0939503DF91CF9108957F
:103C9000EA01CE17DF07E8F54A815B819E014115F5
:103CA0005105B1F7E901FB83EA8349915991C40FAA
:103CB000D51FEC17FD0761F4808191810296840F76
:103CC000951FE90199838883828193819B838A83ED
:103CD000F0E0E0E012968D919C9113970097B9F572
:103CE0002D913C911197CD010296820F931F209147
:103CF0009503309196032817390739F6309751F517
:103D00001092980310929703B0939603A093950393
:103D1000BCCFD383C28340815181840F951FC817C4
:103D2000D90761F44E5F5F4F88819981480F591F11
:103D3000518340838A819B8193838283211531053E
:103D400009F0B0CFF0939803E09397039ECFFD0165
:103D5000DC01C0CF13821282D7CF4F925F926F9255
:103D60007F928F929F92AF92BF92CF92DF92EF920B
:103D7000FF920F931F93CF93DF938C01009799F4D9
:103D8000CB01DF91CF911F910F91FF90EF90DF90CA
:103D9000CF90BF90AF909F908F907F906F905F90EB
:103DA0004F900C94881DFC01E60FF71F9C012250D8
:103DB0003109E217F30708F4AEC0D901CD91DC91C7
:103DC0001197C617D70720F1C530D10578F0CE017D
:103DD00004978617970750F0C61BD70B2297C193FD
:103DE000D1936D937C93CF010E94241EC801DF9173
:103DF000CF911F910F91FF90EF90DF90CF90BF90E8
:103E0000AF909F908F907F906F905F904F900895AC
:103E10005B01AC1ABD0A4C018C0E9D1EA09197034C
:103E2000B0919803512C412CF12CE12C109731F5D5
:103E300080919503909196038815990509F05CC0CF
:103E40004616570608F058C0809120029091210232
:103E5000009741F48DB79EB74091240250912502FE
:103E6000841B950BE817F90708F055C0F0939603EB
:103E7000E0939503F90171836083B8CF8D919C9194
:103E8000119712966C90129713967C901397A81521
:103E9000B90559F56C0142E0C40ED11CCA14DB040B
:103EA00020F1AC014A195B09DA011296159780F0EE
:103EB0006282738251834083D9016D937C93E114B4
:103EC000F10471F0D7011396FC93EE9312978ECF05
:103ED00022968C0F9D1FF90191838083F301EFCF10
:103EE000F0939803E093970381CF4816590608F49E
:103EF0002C017D01D3019ACFCB010E94881D7C014A
:103F0000009749F0AE01B8010E94931FC8010E94BA
:103F1000241E87016BCF10E000E068CF81E090E0C5
:103F2000F8940C94B21FFB01DC0102C001900D92C9
:103F300041505040D8F70895FB01DC0101900D92EB
:103F40000020E1F70895FB01DC014150504048F0AA
:103F500001900D920020C9F701C01D9241505040C0
:103F6000E0F7089514E0C0E2D4E000E006C0802F3E
:103F7000FE010E94791D2196011DC132D10780E00A
:083F80000807A9F7F894FFCF30
:103F88000100000000000000000000000000000028
:103F9800C409C40904FFFF0001000000010000007B
:103FA8000000990380002524232221201F1E0300DE
:103FB8000D00170021002B0035003F004900530079
:103FC8005D00670071007B0085008F00990000008C
:103FD80000007C08E6071308D308440822083608BE
:103FE80000000000BF0BE607960EE507640BC20D44
:103FF800F70A8B0A730D070A2409C109BD070D0AC0
:024008000000B6
:00000001FF
